:10000000C0280020652100004B890000512100001C
:10001000512100005121000051210000000000008A
:10002000000000000000000000000000D1220000DD
:1000300051210000000000006D220000512100004D
:10004000812400008124000081240000812400001C
:10005000812400008124000081240000812400000C
:1000600081240000812400008124000081240000FC
:1000700081240000812400008124000081240000EC
:1000800081240000812400008124000081240000DC
:1000900081240000812400008124000081240000CC
:1000A00081240000812400008124000081240000BC
:1000B00081240000812400008124000081240000AC
:1000C000812400008124000081240000812400009C
:1000D000812400008124000081240000812400008C
:1000E000812400008124000081240000812400007C
:1000F000812400008124000081240000812400006C
:1001000053B94AB9002908BF00281CBF4FF0FF317E
:100110004FF0FF3000F00CB8ADF1080C6DE904CEE3
:1001200000F010F8DDF804E0DDE9022304B07047C8
:10013000704700BF034613F8012B002AFBD1181AA1
:10014000013870472DE9F04786468C460846089EE0
:10015000154674461946002B40F0C2808542B2FA1B
:1001600082F245D94AB1C2F1200300FA02FC2EFA0C
:1001700003F3954043EA0C0C94404FEA154EA8B2A5
:10018000BCFBFEF8230C0EFB18CC08FB00F943EA7D
:100190000C43994528D9EB1808F1FF3704D299454B
:1001A00002D9A8F102072B44A3EB0903A4B2B3FBC5
:1001B000FEFC0EFB1C330CFB00F044EA0344A0429F
:1001C00014D92C190CF1FF3304D2A04202D9ACF19E
:1001D00002032C44241A43EA07401EB1D4400023F2
:1001E00034607360BDE8F0874746DDE76346F1E7BA
:1001F00092BB431B01214FEA154EAFB2B3FBFEFC8D
:10020000200C0EFB1C330CFB07F840EA0343984517
:1002100062D9EB180CF1FF3004D2984502D9ACF149
:1002200002002B44A3EB0803A4B2B3FBFEFC0EFBBD
:100230001C330CFB07F744EA0344A7424ED92C19A0
:100240000CF1FF3304D2A74202D9ACF102032C44D3
:10025000E41B43EA0040C0E7C2F1200320FA03F1A7
:10026000954090402EFA03F303434FEA154EAFB288
:10027000B1FBFEFC0EFB1C10190C0CFB07F841EA4D
:100280000041884504FA02F422D969180CF1FF30C4
:1002900004D2884502D9ACF102002944A1EB08013F
:1002A0009BB2B1FBFEFC0EFB1C110CFB07F743EAF3
:1002B00001439F420ED9EB180CF1FF3104D29F424B
:1002C00002D9ACF102012B44DB1B41EA004192E769
:1002D0006046E3E76146F7E76046A3E76346B7E7B2
:1002E000834206D916B9002108467BE7C6E900E03B
:1002F000F9E7B3FA83F78FB9834201D3724508D87F
:10030000BEEB020460EB030301209C461EB90021F2
:1003100068E73846FAE7C6E9004CF8E7C7F1200C71
:10032000BB4022FA0CF41C432EFA0CF120FA0CF319
:10033000B84001434FEA14490EFA07F5B3FBF9F848
:100340001FFA84FE09FB18300B0C08FB0EFA43EA77
:1003500000439A4502FA07F240D9E31808F1FF304A
:1003600004D29A4502D9A8F102002344A3EB0A0360
:1003700089B2B3FBF9F809FB183308FB0EFE41EA1A
:1003800003418E452CD9611808F1FF3304D28E4504
:1003900002D9A8F10203214443EA0040A0FB0298DD
:1003A000A1EB0E014145CE46434602D306D14D4551
:1003B00004D2B9EB020E68EB04030138002EA6D07C
:1003C000B5EB0E0261EB030101FA0CFC22FA07F314
:1003D0004CEA0303F940C6E9003198E74046C5E717
:1003E0004346D9E708B5054A0548032108F0E3F973
:1003F00000214FF4004009F0B8F8F9E7949E00009E
:10040000B89A00002DE9F04F91B08407009302F0F4
:1004100004030293C2F3C20303F10103DDF8688011
:10042000039205460E46059340F0BA81041D30B193
:10043000072909D86FF01B0011B0BDE8F08F01F05B
:1004400007063444C6F10806009B4FF00009591E08
:100450004FF0040A4FF0FF330193CDF810904F4650
:10046000CB4653460DB1009A22600598002800F350
:10047000E8809848009A824203D397488242C0F0AD
:10048000E080039AA4EB050E92074FEA9E0000F16C
:1004900003810F2F00F2B180002D00F0058107F1DC
:1004A00040020DEB020C019A0CF8200C0CF8102CF9
:1004B000049801300490E7E07A285DD84B280ED8E4
:1004C000472859D829282DD8252852D054D8202853
:1004D0007AD02338D0F1000B4BEB000B74E04C3892
:1004E0002E2849D8DFE800F0704848484848484876
:1004F000484848484B484848484848484859484B65
:100500004B595959704B6D487048184B18484882E0
:100510007F4B48484B487F0000204FF0000B4FF0C6
:10052000040A38E02A38C0B2012202FA00F010EAC8
:100530000E0F49D110F0625C2FD110EA020B43D0AC
:100540006046013C5444B4FBFAF40AFB04F4002D69
:1005500061D0A3EB050CA444B4453FF66BAF002873
:1005600068D1042B47D158F8043B2360043404239A
:100570002AE0019A013A01924FF0000B24E011F8B1
:10058000010C6C2834D111F8023C00206C2B8346FE
:10059000C5D14FF0080A5346D3E708F1070828F001
:1005A00007080734F8E802AB24F0070435B10698D1
:1005B0002044B0423FF63EAFC4E900AB08344FF0F0
:1005C000000B4FF0080A534611F8010F002878D0AD
:1005D000BBF1000F7FF470AF2528F5D1019B0133EB
:1005E00001934FF0010B4FF0040AECE7584694E7F3
:1005F00000208346A5E7082B02D06FF015001BE70B
:1006000008F1070828F00708F8E80223C4E90023E6
:1006100008340823D8E768B9042B02D108F104088C
:10062000A4E7082BE9D108F1070828F0070808F12A
:100630000808EDE7059A013A059258F8042B009254
:1006400010E7039A900720D5A4EB050E4FEA9E0011
:100650004FF0010CBEF5007FCFD20F2FCDD8F5B1F2
:1006600007F140020DEB020EC0B2019A0EF8200C09
:100670000EF8102CBCF1000F3FF41AAF60F07F00B1
:100680000EF8200C09F101090137C5F10802043404
:1006900006924FF6DA7E97E74FF0000CDAE7BCF1EE
:1006A000000F01D00136EFE7029802360028EBD1A7
:1006B0000098CDE90631FFF73DFDDDE9063106443E
:1006C000E2E7631BB3F5806F97D23DB9A6F108044A
:1006D000E018B1E6C897000044AA0000029A28601A
:1006E0009B082B709DF81030C2B1EB7085F802901A
:1006F000B9F1000F05D008A80022C5F1010C9742FE
:100700000ED1C5F101030DF120084FF0000A01934D
:100710000DF1300B574512D1601B8DE66B70E5E78C
:1007200010F8013B190608D50CEB040EB64503F092
:100730007F033FF67FAE04F8013B0132DFE7B9F1FA
:10074000000F03D098F90020002A17DB029BD3B1D9
:100750001AF80B2004F8012B0022019B18191044F1
:10076000B0423FF667AE98F8000004F8010B00991C
:100770000392204608F09CFF039A14440AF1010AF0
:1007800008F10108C6E798F8002055F822300093D8
:10079000029B45F822300098FFF7CCFC421CDCE7B6
:1007A0006FF00D0048E600BF2DE9F04F97B000AFA5
:1007B00090F802A0D7F880B03B62CBF3C0030446A8
:1007C000FA62BB61894641B9457800780AEB80003E
:1007D00020444D4517D8A0EB0409E378FB61BAF13A
:1007E000000F02D01BF0010F16D1FB6953BBFB6A4F
:1007F0001BB13A6A4946204698474D4628465C3721
:10080000BD46BDE8F08F461C3046FFF793FC013033
:10081000304409F10109DCE7237862687A62FA6AF8
:100820009900796104EB8301002A40F000814D4674
:100830000E4601EB0A094FF000084E454CD101EB82
:100840000A0610E01BF0020FD1D023789A007A61DB
:1008500062687A62FA6A04EB8301002A77D14D4616
:1008600001EB0A0690461BF0050F0CBF0223012383
:10087000FB62FB6906EB430A0BF00203BB625645C1
:10088000BCD016F8021B16F8013C54F82390994B83
:10089000994502D3984B994536D3BB69002B40D07C
:1008A000786A07F081FB00283BD0E9468AB06A46A7
:1008B000924B53617B6AC2E906314FF40073138493
:1008C0008F4B42F8103F8F4800234FF4125100F035
:1008D00023FD023DCD46D2E716F8013BF96254F8FC
:1008E0002300FFF727FCD7F88430F96A01304BB1B9
:1008F000D7F8883098453EBFD7F8843023F81800E1
:1009000008F10108054498E7BB6923B1786A07F04C
:100910004BFB0028C9D11BF0010F05D1FB6AED1A72
:10092000ADE7BB6A002BAAD04846FFF703FCD7F817
:10093000843053B1D7F8883098453FBFD7F884202A
:10094000431C22F8183008F10108054497E7BAF172
:10095000000F72D01BF0040672D0D046002607F1BB
:10096000480052463B61B96208F0A2FEB96A3B6991
:1009700001EB0A02BA62FA69F9695200FA60BA6ACE
:1009800002EB41023A610BF00202BA603A69B96ABD
:100990008A4257D162787A621BF0020F32440CBF50
:1009A0004FEA580100211BF0010FD2B240F09F80A6
:1009B0001BF0040F14BF40460020BB616270A070A2
:1009C000E1703A6A7969FB6A20469847051EFFF68E
:1009D00015AFBB6923707B6A6370FB69E3704146A6
:1009E0003A6AFB6A84F802A007F148009847B0F120
:1009F0000008C0F2BB807B693A6AA9EB0A01C91AF8
:100A0000FB68C91AD7E90A0398470028C0F2B080EA
:100A1000A84408EB00054FF0000B07F1380AB34576
:100A200072D300213A6AFB6A08469847E6E65646C2
:100A30004FF0000807F1380093E75646D04697E795
:100A4000B04695E7BA6A12F8021BBA6212F8015C66
:100A5000284A54F82500904202D3274A90421ED3D8
:100A6000BA6932B1786A7B6007F09EFA7B68002829
:100A70008CD1BA6802BB08F1280207F1300C08F1EA
:100A80000100944407F1580252FA80F008F102087C
:100A90000CF8101C5FFA88F800F8105C76E7BA6969
:100AA0003AB1786A7B6007F07FFA7B6800287FF4B0
:100AB0006DAF1BF0010F09D006F1280207F13000DD
:100AC000711C161806F8205CCEB25FE71BF0040F0D
:100AD0003FF45CAF08F1280207F1300008F1010192
:100AE00002EB000808F8105C5FFA81F84EE700207E
:100AF00063E700BFC897000044AA0000C49E00003E
:100B000004000001C89A00001BF80A3087F837304B
:100B100054F82390D7F884302BB3D7F888309B450E
:100B200021D2D7F8843033F81B803A6AFB6A01215E
:100B300007F13700984700281ADB0544B8F1000F89
:100B400006D14846FFF7F6FA00F101081FFA88F8C7
:100B50003A6AFB6A414648469847002808DB054444
:100B60000BF1010B5BE74FF00008DEE7454645E679
:100B7000054643E6014B1860704700BFC0040020E3
:100B800080B505460E461746984606F063F90346BB
:100B900008F010FEDFF81890044649F8003042468D
:100BA00030463946A84754F8090001F049FB00BF18
:100BB000080000002DE9F047058B04462807904601
:100BC00011D4022905F0070540F0CC80204607F03B
:100BD00080FC78B10138218B042811D8DFE800F0BF
:100BE000C2106D85950001290CBF45F0100545F038
:100BF0002005258388F31188BFF36F8FBDE8F08748
:100C000001F0070AAA4500F0A5800027B9463E4634
:100C1000A368002B00F0BC8041F00801218388F319
:100C20001188BFF36F8FA168002900F0BA800D68AA
:100C3000002900F0B680D1F80480334652462046A1
:100C4000C047002D76D02B6829461D46F0E701F0FD
:100C500007035A1F012A1BD8002221F00701062B87
:100C6000276889B2C4E9002209D13B4603E0628BC0
:100C7000013262831B68002BF9D141F0020121830C
:100C8000204607F026FC00287AD041F0200176E0CB
:100C9000042B0AD121F0070189B22183204607F0F5
:100CA00018FC10B141F020012183218B01F0070ACB
:100CB000AA454FD00027B946AAE7236921F00701CA
:100CC00041F00601062DD3F8009021832DD1B9F112
:100CD000000F3FD041F00801218388F31188BFF352
:100CE0006F8F3A492046C84729E021F00701236960
:100CF00041F0040189B2042DD3F804902183E6D099
:100D000000273E464FF0040A82E721F007012369DD
:100D100041F0050189B2052DD3F808902183D6D082
:100D200000273E464FF0050A72E700273E464FF087
:100D3000060A6DE72B4687E7B9F1000FD1D1EFF333
:100D40001188202383F31288BFF36F8F238B23F046
:100D500008032383258BEA062ED525F01003238371
:100D600005F007056669218B002EBFF670AF0023E2
:100D70002768C4E9003321F0070141F00101218314
:100D8000218B01F0070AAA454FF000097FF440AF1C
:100D9000002F9CD041F00801218388F31188BFF314
:100DA0006F8F002FC8D03D683946334652462046E3
:100DB00007F0BBFB2F46F4E7AB067FF51BAF25F032
:100DC0002003238305F0070500E700BF57850000D7
:100DD0002DE9F047DFF85880044607464FF0010937
:100DE00014B93846BDE8F08794FAA4F5B5FA85F54C
:100DF00009FA05F32E0108EB05156FEA030A24EA48
:100E000003042B7B002BEBD058F806301B694BB941
:100E10004644042273682846196807EA0A0700F066
:100E200067FADDE7284698470028D9D1F0E700BFE8
:100E3000209B000030B51049104889B0002208F00E
:100E40000FFC0F4D0F4900220023CDE9062300249B
:100E50000E23CDE90334CDE901440B4B00944FF44C
:100E60004072284605F05EFD0849284608F0E7FA7A
:100E7000204609B030BD00BF910E0000000C0020DC
:100E800078070020C017002095110000789F00000F
:100E9000014805F02DBB00BF680700202DE9F04791
:100EA00080461F480F4607F000FC0646002830D059
:100EB00000252846BDE8F087237B6BB12368DB68FB
:100EC0000BB12046984723681B69D3B96368042295
:100ED0001968204600F00CFA013610344C45EBD36B
:100EE000B8F1000FE5D0002DE2D02846FFF770FFE3
:100EF0000546002FF7D000214FF4A47008F035FB11
:100F0000F1E7204698470028E0D00AFA06F31D438F
:100F1000E2E7044CDFF8109005464FF0010ADDE7E8
:100F2000A80E0020209B0000409B0000014B53F8BE
:100F3000200070476C9B000008B5034608462BB1A3
:100F4000044A136000F07EFC002008BD6FF015001D
:100F5000FBE700BFC404002010B5044C237813B98C
:100F6000034805F0C5FA0123237010BD6417002063
:100F70006807002010B504460B4807F096FB5CB1EB
:100F8000BFF35B8F094B53E8001F013943E80012A0
:100F9000002AF8D1BFF35B8F054808F06DFB0548C8
:100FA000BDE8104005F0A4BAA00E0020A40E002059
:100FB000000C0020680700200020064BBFF35B8F69
:100FC000014653E8000F43E80012002AF9D1BFF3AD
:100FD0005B8F7047A00E002070B5FFF7EDFF084C47
:100FE000084E0546B44200D370BD63685B792BB1EF
:100FF00023685B6813B12946204698471034F1E70F
:10100000209B0000409B000010B5044C0449204682
:1010100007F0F8F8034B1C6010BD00BFC8060020A5
:10102000589B0000980E0020084A094808B5002384
:101030001370084A1360084A4FF400411360FFF729
:101040007BFFBDE80840FFF7DFBF00BF651700204A
:10105000A7860000A00E0020A40E0020014600225A
:101060000148002307F0EFB8C8060020014807F048
:1010700088B900BFC8060020024B0146186807F077
:10108000D4B900BF980E0020014807F009BA00BF8C
:10109000C806002070B5284B187800284BD0FFF701
:1010A000E5FF054690B1BFF35B8F244B53E8001F6B
:1010B000013943E80012002AF8D1BFF35B8F204CBE
:1010C000204EB4422DD32846FFF7D6FF1E4B1F4CAF
:1010D0001B68002B19DD08F0C1FA4FF47A72A0FBEF
:1010E000020302FB0131C30BD4E9002043EA414370
:1010F0009B1A4FEAD13140F2E93261EB0001934291
:1011000071F1000101D3FFF767FFD4E9003213F555
:101110007A7342F10002C4E90032BDE87040FFF783
:10112000B3BF63685B7923B1236829461B682046F7
:1011300098471034C5E770BD64170020A40E002046
:10114000209B0000409B0000A00E0020F80B002018
:1011500070B50D4D297861B90120FFF79FFE0B4C4A
:101160000B4EB44206D3FFF795FF0028FBD10123B5
:101170002B7070BD63685B791BB1236820469B6848
:1011800098471034EDE700BF65170020209B000052
:10119000409B000000212DE9F0470846FFF77EFE46
:1011A000044658B340F267684FF0000908F002FBAC
:1011B0001B4B1C4A1B58136033B11B4B1B68092B7C
:1011C00002DD1A4805F094F9194FDFF860A00025F8
:1011D00044B12046FFF7FCFD044618B94FF0FF3834
:1011E0004FF0FF39FFF756FF064628B9B5B942461A
:1011F0004B46504605F0B0F93546E9E74FF0FF3869
:101200004FF0FF39D2E72B689B691BB100221146D2
:10121000284698471035BD42F5D3E8E7054DFAE773
:10122000080000009C0E0020A40E0020680700208B
:10123000409B0000209B000013B5184807F035FACA
:10124000174B1B7873B1EFF31184202383F31288BB
:10125000BFF36F8FFFF71EFF84F31188BFF36F8F0B
:1012600002B010BD0F4B1B68002BF9D050B9002203
:101270000023CDE900230C484FF40042002306F080
:10128000B5F8EDE70928EBD1074808F0F5F907486C
:1012900002B0BDE8104005F02BB900BFA40E00203D
:1012A000651700209C0E0020000C0020680700201D
:1012B00010B5064B1B68044698472146A0600448B9
:1012C00007F040F8BDE81040FFF7B6BFC4040020A7
:1012D000C8060020044A054B9B1AB1EBD30F34BF5C
:1012E00052F8310000207047B89A0000209B00009F
:1012F000084BC31A10B41B114468013323714368AF
:101300009A7143681960436801225A7110BCFFF753
:1013100023BE00BF209B00002DE9F04F8FB004AF2B
:10132000C1F34A28B8600D4691467B600C0DB8F1B8
:10133000000F63D0002607F114034FF0040B4FF0A9
:101340000A0AC7F80C80C7E907667E620193CDF8E8
:1013500008B0CDF800A007F11C03F96832464846F2
:10136000FFF722FAB0F5006F03461CD36C468AB033
:10137000D9F8041004AB2648C3E9050140F2FF7117
:10138000D9611A464FF400711984224B42F8103F7C
:10139000214833464FF41251FFF7BEFFA5462C37C4
:1013A000BD46BDE8F08FC0F30A0804F117001844E9
:1013B00020F0070080083B60FFF750FE68F35325DC
:1013C000044690B13B68154AC7E9083600F11001A0
:1013D00007F11403F961CDE900A3CDF808B0F9686D
:1013E00007F11C034846FFF7DFF968F353257B68D4
:1013F000B9682A46204607F08EF9D0E704F11700B5
:1014000020F007008008FFF729FE0446EDE700BF43
:101410008D9F000004000001D89A0000EB860000B8
:101420002DE9F04F87B0DDE91279DDE9105A044665
:10143000039193469846BFB1CDF800903B46524683
:1014400010210020CDF81490FEF7DCFFB0F5006FFE
:1014500006460AD3184A194840F2FF73022107B022
:10146000BDE8F04F07F0B0B93E4605F11700304433
:1014700020F0070004F007048008FFF7EFFD0BF0F1
:10148000070BE40044EA8B1444EA462444EA05547A
:10149000054640B13FB1CDF800903B46524631463B
:1014A0001030FEF7AFFF039943462246284607B0A7
:1014B000BDE8F04F07F02FB9CC9F0000D89A00008C
:1014C000406820B1034BC01A40F3CF0070474FF083
:1014D000FF307047B89A00000EB403B503AB014665
:1014E00053F8042B0448019301F050F902B05DF861
:1014F00004EB03B0704700BF13880000CA0605D490
:101500008B064CBF02490349FFF7E6BF704700BF97
:1015100005A0000004A000002DE9F04F89B09B4613
:10152000149B06939DF84CA0159B0593169B179E44
:10153000049304460D469046BAF1000F00F09D80DA
:1015400006F48073079307F0CEF806F0020902460E
:1015500000283ED091492046FFF7BEFF0746B9F16B
:10156000000F08D016F0440F35D18D492A46204689
:10157000FFF7B2FF074406F0010353B1894B8A49D4
:1015800053F82A20894B2046002A08BF1A46FFF745
:10159000A3FF06F48073002B49D006F00803002B4C
:1015A00063D1B8F1000F66D0814942462046FFF76B
:1015B00093FF0546069B3D44002B6DD1049B002BF9
:1015C00073D1F30700F1E48031462046FFF796FF20
:1015D000D8E00746C3E7774B18680028CAD0764B97
:1015E0004FF47A791B68B5FBF3F54FF46163B5FBF3
:1015F000F0F100FB115509FB05F54FF03C0CB1FB78
:10160000F3F203FB1211B5FBF0FEB1FBFCF300FBA0
:101610001E550CFB131109FB05F50091B5FBF0F508
:101620006649CDE901E52046FFF756FFA2E706F03F
:101630000803EBB1624B634953F82A202046FFF7B9
:101640004BFF0546B8F1000F05D0594942462046E8
:10165000FFF742FF0544BBF1000FABD05A495A4691
:101660002046FFF739FF0544A4E74FF0000BE1E700
:1016700006F00805E6E745469CE7BBF1010F069B2F
:1016800006D1002B64D1049B002B7BD000250CE0FD
:10169000002BF8D04D485CE04D48069B4D49224652
:1016A00006F051FC049B002B68D0DFF82C81DFF89A
:1016B0002C91049F3146102F204628BF1027FFF79A
:1016C0001DFF4FF0000B5D4545DC059B49461A7830
:1016D0002046FFF701FF4FF0010B1BF0070F03D16E
:1016E00041462046FFF7F8FE5F453BD9059B49463A
:1016F00013F80B202046FFF7EFFE0BF1010BBBF1B7
:10170000100FEAD1364920464FF0000BFFF7E4FEF8
:101710005A46059B9A5CA2F120015F2928BF2E2220
:1017200030492046FFF7D8FE0BF1010BBBF1100F3B
:101730001DD01BF0070F03D141462046FFF7CCFE1A
:101740005F455A46E5D841462046FFF7C5FEEBE720
:101750001F485546A1E741462046FFF7BDFE0BF165
:10176000010BB0E720492046FFF7B6FEC5E7059B11
:101770003B440593049BDB1B04939AD1BAF1000F01
:101780007FF41FAF204609B0BDE8F04F07F034B832
:10179000064A05492046FFF79FFE15E70CA000000A
:1017A00010A000007C9B00001AA7000007A000000A
:1017B00035A00000B00E0020AC0E002019A00000E3
:1017C000909B000039A000003FA000004988000065
:1017D000138800008D2700004CA0000044A00000EA
:1017E0004EA0000050A000004AA0000073B542F2D5
:1017F0000F738B4228BF0B4605680F4A044605212C
:10180000684606F037F863680C495B6806460B22A9
:10181000284606F0E3FF63683246694628465B685F
:1018200006F0DCFF636806495B681B22284606F069
:10183000D5FF02B070BD00BF26A200006FA000005F
:1018400053A00000074A00210123904206D8064A0F
:1018500001B901231360054B1860704740085B0015
:101860000121F2E740420F00AC0E0020B00E002034
:10187000014B01221A70704766170020014B0020AF
:1018800019607047C80E00200148FFF7AFBF00BFC6
:10189000C09B000010B5064B18680C46FFF746FBCE
:1018A00021460346BDE8104002480F22184700BFFA
:1018B000C80E0020C09B0000F8B5094D094B0A4E28
:1018C000D5E9004701221A700CB92C60F8BD2146F9
:1018D00030463A4600F01EF8241A0644F4E700BFEA
:1018E000BC0E0020671700206817002010B9074BB6
:1018F00018707047064B1B781BB141F2883007F017
:10190000A9BCA420002107F030BE00BF661700204C
:10191000671700202DE9F047DFF878901E4F8046CA
:101920000E46042499F80050A5B907F018FC324679
:1019300082464146284604F03FF90546504607F0E6
:1019400016FCE5B101233B7099F8003073B93046BD
:10195000BDE8F08732464146002004F02DF90546E7
:10196000EFE72046FFF7C2FF651E2C46002004F07B
:1019700067F90028EBD03B78002BF2D1E7E73B7802
:10198000002BE4D0013C2046FFF7B0FF3B78002B52
:10199000C8D1DCE76717002066170020F8B5074FAD
:1019A0000D4604464618B44201D12846F8BD14F845
:1019B000011BBB6801485B689847F4E78C980000FE
:1019C000014B036000207047049C000008B50448E8
:1019D00006F011FBBDE80840024806F00CBB00BF52
:1019E000C5A00000FAA00000014805F09BBD00BFA3
:1019F000049C000038B5044618B90F4B0F485B68CB
:101A000098476168B1F5683F10D0B1F5680F0DD007
:101A10000B4DA9420AD011F46861206807D0014635
:101A2000084807F074FC00232360656038BD142269
:101A300007F04CFEF9E700BF5806002028A100007F
:101A40002C5F5CA9F013002008B520B34368B3F500
:101A5000683F10D101220368BFF35B8F53E8001F7A
:101A6000002903D143E800200028F7D1BFF35B8FA2
:101A70000DD1002008BD094A93420AD000684FF0FA
:101A8000FF324FF0FF3304F06BFC0028F1D0044824
:101A9000F0E70448EEE76FF4E040EBE72C5F5CA969
:101AA000E98FFFFFEA8FFFFF08B5D8B14368B3F5B0
:101AB000683F10D100220368BFF35B8F53E8001F1B
:101AC000012903D143E800200028F7D1BFF35B8F41
:101AD0000BD1002008BD074A934208D0006804F0EB
:101AE000B7FCF6E76FF4E040F4E70348F2E7034899
:101AF000F0E700BF2C5F5CA9E98FFFFFEA8FFFFFD3
:101B000010B5044618B91D4B1D485B6898476368BB
:101B1000B3F5683F2FD0B3F5680F2CD0194A934224
:101B200019D1236803BB18484FF0FF324FF0FF3341
:101B3000214604F0E7FB08B923681BB90F4B134893
:101B40005B68984720681422002107F0BFFD4FF41E
:101B50006863636008E0B3F5683F0DD83A2B03D0A3
:101B600040F6BA629342DED1206807F01AFC63683F
:101B700043F03A03636010BD054AF3E758060020BE
:101B800028A100002C5F5CA9F01300204EA10000EA
:101B90003A00003A08B5064906484023142207F0E7
:101BA000A8FBBDE808400449044805F02DBD00BF6E
:101BB000F00E0020F01300200C9C0000209C000080
:101BC0002DE9F047064600AF0C46002936D0E9461D
:101BD0008AB0D1E90012A3686D462148A8464FF0AB
:101BE000050AC5E90501C5E9072348F810AF1D48F6
:101BF000424600234FF42151FFF78EFBCD46D4E936
:101C000003126369AD461848C5F810A0C5E905017F
:101C1000C5E907231348002342464FF42151FFF73B
:101C20007BFBCD46E369114A0E48012106F0CCFD4D
:101C3000A3690F4A0B48012106F0C6FD012E07D10A
:101C4000EFF305830B4A0748103B314606F0BCFD15
:101C50002146304604F0A4F9BD46BDE8F08700BF38
:101C60007BA10000F89A0000AAA10000D9A1000001
:101C7000E8A1000016A2000030BFFFF7FDBF00BFC3
:101C80002DE9F0410B4EDFF8308006EB0807CC1B46
:101C9000054632460949204607F00AFDA01942468A
:101CA0000021083C07F012FD2C6707F10800BDE891
:101CB000F08100BF0000000004000000409B000015
:101CC000074A936893F90E10002907DB5269934283
:101CD0001FBF044A536843F080535360704700BFEE
:101CE0005415002000ED00E070B5294C06460D4665
:101CF0002848294906F030FEA36AD9043CD5254876
:101D0000264906F029FE1720A36A1A0504D52148A2
:101D1000234906F021FE18201D4CA36A9B0512D50D
:101D20001C48204906F018FEA36BA26A100409D5CE
:101D30001D4A1848012106F047FD1EB1A36A23F48D
:101D40000043A3621920124CA36A590504D5114817
:101D5000164906F001FE1A20A36ADA050ED50D48D1
:101D6000134906F0F9FD1B20094A936A43F47F43A7
:101D7000936200232B7070BD1620C5E7A36A9B04F5
:101D8000F2D504480B4906F0E7FD1C20ECE700BF44
:101D900000ED00E0F89A000029A200003FA2000038
:101DA00050A2000063A200007CA2000091A20000EB
:101DB000ACA20000C4A2000010B5204C204921486C
:101DC00006F0CAFDA36A990136D51E481E4906F0E1
:101DD000C3FD1E20A36ADA0104D51A481B4906F088
:101DE000BBFD1F20154CA36A1B0304D515481849D9
:101DF00006F0B2FD2120A36A590304D51148154904
:101E000006F0AAFD22200D4CA36A9A0304D50D48C2
:101E1000114906F0A1FD2320A36ADB0304D509487C
:101E20000E4906F099FD2420044A936A6FEA0343A1
:101E30006FEA1343936210BD1D20CBE700ED00E075
:101E4000F3A20000F89A00000BA300001EA30000FC
:101E500038A3000056A300007BA3000095A3000058
:101E60002DE9F843364D80468946364836491746AF
:101E700006F072FDAB6ADE0627D53449314806F01C
:101E80006BFD1124AB6A1D0704D531492D4806F0BE
:101E900063FD12242A4DAB6A980718D52D492948AD
:101EA00006F05AFD6E6BAB6A190646D52A4A2548DC
:101EB0003346012106F088FCB9F1000F03D0AB6A6C
:101EC00023F08003AB62132403E01024DAE76FF001
:101ED00015061B4DAB6ADA0704D52049194806F0F0
:101EE0003BFD1424AB6A9B0604D51D49154806F03A
:101EF00033FD1524124B9A6AD50602D49A6A9007CC
:101F00000AD55B68190507D54146304600F072FADC
:101F100010B180F309880224094B9A6A920642BFE5
:101F20005A6A22F400525A629A6A42F0FF029A6296
:101F300000233B702046BDE8F8836FF01506C2E72A
:101F400000ED00E0F89A0000C0A30000D6A3000056
:101F500050A2000009A4000021A4000037A4000042
:101F6000C4A200002DE9F041664B8AB0D3F804808A
:101F700000AF0446C8F30805002686F31188BFF3B6
:101F80006F8F02F07F43B3F17F4F07D102F00C0354
:101F9000082B12D15C495D4806F0DEFC0026344671
:101FA0000023FB71EB1E092B00F28A80DFE803F0AF
:101FB0000A80837C88888888888610074CBF0C46F6
:101FC0000126EDE7524951484E4D06F0C5FC00236D
:101FD000FB71EB6A9A0705D54E494C4806F0BCFCEC
:101FE000002332E0EB6A002B01DA4B49F5E7EB6A9C
:101FF0005B00F5D54949454806F0AEFC6B69A2691E
:1020000043F480736B61BFF34F8FBFF36F8F6B69C6
:1020100032F8022C23F480736B61BFF34F8FBFF350
:102020006F8F4DF602739A4208D0AB6ADBB273B37E
:10203000FA1D01212046FFF713FF37E02368384AD5
:102040003248012106F0C0FB2368FA79DAB907F1BA
:10205000080504F1200C206861682A4603C2083490
:1020600064451546F7D17A6A002E45D0C2F30801BF
:1020700021B96FEA52226FEA42227A6207F108011F
:102080001846FFF79DFD2837BD46BDE8F081AB6AD5
:1020900013F47F4F04D0F91D0120FFF725FE05E062
:1020A000AB6AB3F5803F9BD3FFF786FE0346CCE7D0
:1020B000FA1D0021BEE7F91D0020EEE719498CE763
:1020C000194A1A4B18F4F87FE8468AB018BF13462D
:1020D0006A461749C2E905134FF400731384103D93
:1020E000144BD56142F8103F084800234FF41151BA
:1020F000FFF712F9C54673E722F4FF7222F00102DE
:10210000BBE700BF00ED00E084A40000F89A0000E7
:10211000AFA40000C6A40000E7A40000F5A40000DE
:1021200014A5000030A500006BA4000056A4000018
:1021300054A5000004000001044B5A6942F010024B
:102140005A615A6922F008025A61704700ED00E0B6
:10215000EFF30880EFF3098101B57246FFF702FF44
:1021600001BD00BF002080F31488BFF36F8F0F48BC
:1021700080F3088802F076F900200D490860BFF36B
:102180004F8F00F02BF8202080F3118809484FF47E
:102190000461401880F30988EFF31480022108439A
:1021A00080F31488BFF36F8F00F0ECF8C028002094
:1021B00094ED00E0001B00200749D1F89020002397
:1021C000C2F307221846934200DB7047C1F89830EB
:1021D000C1F8A0000133F6E700ED00E008B572B6E3
:1021E000002383F31388FFF7E7FF144B4FF0FF3210
:1021F000C3F88020C3F88420C3F88820C3F88C205B
:10220000C3F89020C3F89420C3F89820C3F89C200A
:10221000C3F88021C3F88421C3F88821C3F88C2136
:10222000C3F89021C3F89421C3F89821C3F89C21E6
:1022300062B6BFF34F8FBFF36F8F08BD00E100E0C0
:10224000084B9B6883420BD1EFF3058343B1064BE8
:102250005A6842F080525A605A6A22F400425A6226
:1022600004F0FEBD5415002000ED00E015498A6819
:102270004FF030001044EFF3098C80E8F01F20206D
:1022800080F31288BFF36F8F0F4F4FF000664A69DB
:102290008A603E604FF07004141920680B4C206077
:1022A000506F0023536780F3118804B5104600F087
:1022B00005F9BDE8044002F1300090E8F01F8CF30E
:1022C000098870475415002004ED00E00C1400202C
:1022D0001EF0040F0CBFEFF30880EFF30980816953
:1022E00011F8021C0229FFD001B5724606F029FB45
:1022F00001BD00BF40B2002807DB044A41090123A9
:1023000000F01F00834042F82130704700E100E0F8
:1023100040B200280CDB4309064900F01F002033BF
:102320000122824041F82320BFF34F8FBFF36F8F0C
:10233000704700BF00E100E0054B420900F01F00BC
:1023400053F82220012303FA00F01040704700BF29
:1023500000E100E040B20028A8BF00F1604001F1B8
:102360000101B8BF064B4FEA4111ACBF00F5614017
:1023700000F00F00C9B2B4BF195480F800137047C1
:1023800014ED00E00B4A08B50B4B22F07F029A6077
:10239000BFF34F8FBFF36F8FD3F8882022F4700202
:1023A000C3F8882003F0E8FE04F07AFE00F05CF841
:1023B00003F026FF0000000000ED00E042F8203CA2
:1023C000009B42F81C3C0A49019B42F8183C029BC6
:1023D00042F8143C21F001014FF0807342F8043CB4
:1023E00042F8081C0023203A02654367704700BF8B
:1023F000810B0000094A0346906870B113F1160F73
:10240000006E05D0A0F140029A4205D8834203D263
:10241000814228BF002070470020704754150020DB
:1024200008B51546094A0A4B9060026F1A600E46BD
:1024300000F044F82C4686F309880020054B9847A5
:102440002046002100220023034C20475415002081
:102450000C14002069890000810B0000014B102240
:102460001A61704700ED00E0044800232021C218E3
:102470000133302B82F80013F9D1704700E100E0FE
:1024800008B5EFF30583064A103B02EBC30152F88F
:10249000330049688847BDE80840FFF711BC00BF1A
:1024A000DC980000024B034A0348012100F08AB87F
:1024B0000000042000000020309C0000026E054B4C
:1024C000403A1A60044A4021C3E90112184601212A
:1024D00000F082B81014002000000B1508B5034668
:1024E0001048D0F89020C2F30722013A934207D94E
:1024F0000D480E4A012106F067F96FF0150008BD7E
:10250000C0F898300A6822F01F021A4342F0100205
:10251000C0F89C208A6842F00102C0F8A02018464A
:10252000EDE700BF00ED00E0F09A00006BA50000B1
:10253000F0B50E4685B01F4604460025B5420DDABB
:10254000606810B397B1431E18420AD0104A114870
:102550002B46012106F038F96FF01502104605B040
:10256000F0BD1F28F2D921680B42EFD123680193F7
:1025700006F01DFAA36801A90343D0B20393FFF745
:10258000ADFF10F1160FE7D0421C01350C34D5E732
:1025900091A50000F09A0000044B0522C3F8942096
:1025A000BFF34F8FBFF36F8F704700BF00ED00E0A8
:1025B000BFF35F8F024B0022C3F89420704700BF27
:1025C00000ED00E010B5034C01232278FFF7B0FFC7
:1025D000207010BD7917002008B50B4A002312782F
:1025E000FFF7A6FF10F1160F07D0084A0021D2F816
:1025F0009030C3F30723984200DB08BDC2F898006F
:10260000C2F8A0100130F2E77917002000ED00E0D9
:102610002DE9F04357485849D0F890300D68C3F37E
:1026200007239D4285B000F2A180FFF7C1FF4968F2
:102630000022954201F10C011AD1504C504F2570E7
:102640006846FFF7BDF9DFF83C81DFF83C910646AC
:102650000025AE421FD1237846490020D1F89020B2
:10266000C2F3072293427BDBFFF796FF00204CE08A
:10267000C0F8982051F80C3C23F01F03134343F09B
:102680001003C0F89C3051F8043C43F00103C0F83B
:10269000A0300132CDE7009800EB05114FEA051C90
:1026A000CB683B40B3F5000F44D00AD8B3F5001F08
:1026B0002ED0B3F5800F34D0B3F5801F10D0013584
:1026C000C7E7B3F1807F3ED0B3F1007FF7D150F878
:1026D0000C3088684A6806F06AF940F4802009E006
:1026E00050F80C3088684A6806F061F940F088506C
:1026F00040F43020039001A92078CDE90123FFF7B1
:10270000EDFE002828DA6FF0150005B0BDE8F08373
:1027100050F80C3088684A6806F049F940EA080029
:10272000E8E750F80C3088684A6806F040F940EA5B
:102730000900DFE750F80C3088684A6806F037F97E
:1027400040F08270D6E750F80C3088684A6806F08E
:102750002EF940F08870CDE7237801332370AEE77F
:10276000C1F89830C1F8A000013377E74FF0FF308F
:10277000CBE700BF00ED00E03C9C00007917002093
:102780000000F0FF0000081100000207F0B587B05C
:1027900007460E4614460021102268461D4606F0E4
:1027A00095FF02238DF802302A46054B01932146FE
:1027B0006846CDE9047605F089F807B0F0BD00BFA2
:1027C000CF89000008B5024B1B689847002008BD60
:1027D0001C140020034B044A1860937843F0020352
:1027E000937070471C140020F004002008B50649BF
:1027F000064821F00701C1F1005202F5802205F0E0
:102800004AFB002008BD00BF472D002020140020F7
:102810000E4A0123C2F840354FF080424FF08051FC
:10282000C2F87835D1F83001082808D1D1F8341130
:10283000052904D80648415C09B1C2F838364FF082
:1028400080430122C3F880250020704700E001404A
:10285000C3A5000020B1034B800143F001031847DA
:10286000704700BF509B0000084B70B5C31A0D465F
:1028700007499B10044659430648402206F0BBF81E
:102880002B4601462046BDE8704018474014002002
:10289000B76DDBB65098000073B50C4C0C4A402362
:1028A000041B00930D460B460A49A41061430646DB
:1028B000094806F0CBF8011E05DA30462B4602B077
:1028C000BDE87040184702B070BD00BF4014002042
:1028D000B58A0000B76DDBB65098000010B5EFF375
:1028E0001184202383F31288BFF36F8F074A136884
:1028F00023F00201DB07116002D4012006F0DAFAAE
:1029000084F31188BFF36F8F10BD00BF90140020B7
:10291000002270B5012104461046FFF71BFD0F4849
:1029200001F02AFF0E4B984215D101F035FF2669C0
:102930000C49304605F01CFE00280BDB01253564F0
:102940002469084904F11C0005F012FE002801DB8F
:10295000E564002070BD6FF00400FBE7612A000011
:102960000000AD0B5C9C00001FB500220123CDE9E7
:102970000223094ACDF800D06B46CDF804D006F00A
:1029800092F8002805DB4FF480420023684603F0EC
:10299000E3FD05B05DF804FBD38A000030B4104BB2
:1029A0000C2202FB003301460020D3E90E5298634B
:1029B000EFF31180202484F31288BFF36F8F1C6C17
:1029C00004F0C00444F002041C6480F31188BFF3D7
:1029D0006F8F1DB12B46034830BC184730BC704781
:1029E000401400205098000010B4EFF3118220230F
:1029F00083F31288BFF36F8F1748016841F0020418
:102A00000460C80707D482F31188BFF36F8F0120D9
:102A100010BC01F0D3BE4FF08041D1F80C04D1F8C6
:102A20000C14C907EFD5EFF3118083F31288BFF3BD
:102A30006F8F0A490B6C03F0C00343F002030B6471
:102A400080F31188BFF36F8F82F31188BFF36F8F0C
:102A5000002010BCFFF7A2BF9014002040140020FB
:102A600010B1012804D07047034B1B6C5B0701D1E8
:102A7000FFF794BF704700BF401400202DE9F041DC
:102A80003849BFF35B8F0746012251E8003F41E818
:102A900000200028F9D1BFF35B8F33B932493348A6
:102AA0004B60CB608A6005F076FD7B1E012B2BD836
:102AB000012F07D14FF08043D3F81C3403F00303F8
:102AC000012B21D006F0B5FC0546F8B9284B1B7840
:102AD000E3B14FF080430222C3F808230646DFF833
:102AE00094804FF08044D4F81824D4F81834D203DA
:102AF00015D503F00303012B01D0012F0FD155B3DE
:102B000086F31188BFF36F8FBDE8F081EFF3118674
:102B1000202383F31288BFF36F8F0125DFE7ADB168
:102B2000304605F035FFD4F81835002BDBD1D4F84A
:102B30000421002AD7D0C4F80431D4F80431012389
:102B4000C4F81835C8F88031A360CCE700212120F3
:102B500006F00BFDE7E74FF080430222C3F80423A1
:102B6000D2E700BF3C1400202C1400205C1400208D
:102B70008D17002000E100E008B5074806F06FFB64
:102B800038B10648FFF726FE0448FDF7F3FF0020A2
:102B900008BD6FF01200FBE78C980000A12B00002D
:102BA0000A2838B5074D044604D1AB680D215B688F
:102BB00028469847AB6803485B68E1B298472046CF
:102BC00038BD00BF8C980000F0B54068057B01F06F
:102BD0001F0444EA4514056987B0002D64D0B2F59E
:102BE000001F00F1100506D12146284606F0F3F932
:102BF000002007B0F0BD01AE0027B2F5800F0197AD
:102C0000776039D1B3F1007F14BF052304238DF819
:102C100004300023CDE904630393836823FA01F1B0
:102C200011F001011AD1B2F1A07F17D104F01F03F6
:102C3000620903F5E0732AD0012A3BD11F4A52F8FA
:102C40002330DB070AD40DF103063246214628461D
:102C500002F09CF81A4B98421CD0029603AA214617
:102C6000284601F055FF174B984220D101222146FA
:102C7000284602F0EFF8BBE7B3F1C06F05D0B3F11F
:102C8000007F14BF01230223C1E70323BFE74FF0F6
:102C9000A042D4E73146284602F0D6F8094B9842C4
:102CA000DBD06FF00B00A4E76FF08500A1E76FF0B9
:102CB00015009EE751F82330FFDE00BF00030050EF
:102CC0000400AD0B0000AD0B38B545682B69B3B1FE
:102CD0001035284602F0A8F8044680B90146284677
:102CE00002F06EF8084B98420BD10849224628465C
:102CF00002F046F8224605210620FFF72BFB0020B4
:102D000038BD6FF00400FBE70000AD0B112D000093
:102D1000420970B5034602D0012A17D070BD0D4E8E
:102D2000326951680029F9D003F01F0301250C68AE
:102D30009D400029F2D08A682A4002D04B68304674
:102D400098472CB1236821461C46F2E7024EE7E77C
:102D50002346F8E778980000649800002DE9F043D6
:102D6000466840F20635D006337B87B002EA050597
:102D700054BFC2F34010032001F01F07B5F5837F55
:102D8000144647EA43178DF8030045D00FD8062DA7
:102D900018D007D8B5B1022D40D06FF0150007B09C
:102DA000BDE8F083B5F5807FF7D101250AE040F258
:102DB0000222954234D0B5F5407F33D0B5F5007F7F
:102DC000EBD102250123220303FA01F12CD573680C
:102DD000C3F80815326982BB07F01F037F0929D0A9
:102DE000012F77D13E4A02EB830284F48033D2F87C
:102DF0000017C3F30043C4F3404444EA430421F4FE
:102E0000E16144EA800421F0070144EA05230B4311
:102E1000C2F800370020C2E70725D3E70425D1E731
:102E20000525CFE70325CDE7630344BF7368C3F8E7
:102E30000C15CFE74FF0A042D5E710360DF1020296
:102E40003946304601F0A2FF14F4403F80460CD1D1
:102E50003946304606F0BDF8224B9845DAD19DF848
:102E60000210304601F0EAFFD4E701AB4FF0000951
:102E700003AA39463046CDE90439CDE90199CDF8A8
:102E80000C9001F045FE174B984286D114F40033A4
:102E900015D09DF803308DF80E3084F48034C4F3DF
:102EA00000444B4603AA394630468DF80C508DF845
:102EB0000D4001F0E7FE0B4B9842CDD06DE7CDE918
:102EC000043303AA0DF1030339463046039301F09E
:102ED0001FFEF0E703F5E07352F82330FFDE00BF7A
:102EE000000300500000AD0B036803F01F025B09F4
:102EF000026004D0012B034818BF002070474FF038
:102F0000A0407047000300502DE9F04FDFF8949186
:102F1000DFF894A185B01546834600EB810140F2AD
:102F2000FF18594503D1002005B0BDE8F08FDBF84C
:102F300000305E04C3F3C322C3F3080400F1AC8085
:102F40001B0E19F80270444508BF4FF0FF34222BC6
:102F500000F2A580DFE803F012191F22252B22A31F
:102F6000A3A3A33B68A3A3A3A3A3A3A3A3A36B812E
:102F70008487A3A3A38A9194979A9D00C5F80C45D2
:102F8000601C5ED10BF1040BCBE7C5F81445621C45
:102F9000F8D000265FE0C5F80845F1E7C5F8104510
:102FA000F5E7631CC5F80845ECD0002604E0661C74
:102FB000C5F80C45E6D0012603A80394FFF794FF5B
:102FC000039B012202FA03F3C0F80C3508E0C5F8B0
:102FD0000845002FDBD1631CD4D0002632460627DB
:102FE000DBF80030019303F40040002818BF0022F2
:102FF00003A8009218BF01260394FFF775FF039CF6
:10300000019B009A00EB8400C3F3412CD0F80047E9
:103010003B0243EA8C03134304EA0A04234343EAD2
:103020004603C0F80037ADE7C5F80C45D1E7C5F851
:103030006045601CDBF80030A4D0C3F30043002BD4
:10304000B9D003A80394FFF74FFF039B012606FAAC
:1030500003F3C0F808353246C2E7C5F86445E8E72F
:10306000C5F86845E5E7C5F86C45E2E7C5F82445CD
:10307000621C87D000220126B2E7C5F828457FE709
:10308000C5F83045F4E7C5F83445F1E7C5F83845EB
:10309000EEE7C5F83C4573E76FF0150044E76FF0C5
:1030A000850041E712A60000F0F8FCFF2DE9F04191
:1030B000044647680D4606F0BCF94FF0200888B971
:1030C000264B1B7873B16426606805F087FDF0B964
:1030D000012005F0E1FE013EF6D10021212006F09D
:1030E00044FAF0E7EFF31186314688F31288BFF314
:1030F0006F8F606805F072FDA8B986F31188BFF381
:103100006F8FEFE786F31188BFF36F8FE5E7EFF37B
:103110001186314688F31288BFF36F8F606805F01F
:103120005DFD0028EED0BB691D706368BA691B683D
:103130000020C3F844250122C3F84825C3F8200124
:10314000D3F82041C3F85801D3F858019A6081F3AD
:103150001188BFF36F8FBDE8F08100BF8D1700208D
:10316000F7B50546002201210220FFF7F3F80220FF
:10317000FFF7C0F86A6811681369C1F82435137D38
:10318000507D927D03431343C1F86C356E68D6E9D8
:10319000004313F0010350D02F6907F1080005F038
:1031A00087FE334B984208D03248334A012105F05C
:1031B00002FB6FF0040003B0F0BD387A04F10C029A
:1031C00004F5907105F06AFE387A012707FA00F0DD
:1031D00001F06AFA0823C4F80035B369C4F844352D
:1031E0000023C4F84835A760D4F85831002BFBD031
:1031F0000021C4F800156B68DC6801AA204605F0C0
:10320000C0FC002805DB019B226819791868FFF7CC
:103210007BFE6A6813680821C3F80015117A51B95A
:10322000D269C3F834250122C3F83825C3F8101138
:10323000D3F810111A600020BDE70822C4F8002559
:10324000B269C4F84425C4F848350123A360D4F812
:103250002031002BFBD00023C4F82031D4F82031DA
:103260000123E3604FF48073C4F80433BCE700BF6C
:103270000000AD0B189B00001AA600002DE9F043DA
:1032800083B045680669D5F8208000AF3A1D00215B
:10329000404605F076FC041E1ADB7B68D8F8002057
:1032A00019791868FFF730FE041E11DB696A481CA3
:1032B0001BD005F1280000F023FB10F1130F04468A
:1032C0000BD1314A3148012105F0B9FC6FF01204ED
:1032D00020460C37BD46BDE8F083411D05D12C4A80
:1032E0002A48012105F0ABFCF2E7EB699847B56885
:1032F0004FF00108D6E9023203EBC2039D4204D32A
:10330000304605F0CAFC0024E2E7286805F0A7FF74
:103310000346B0B92A68297910686C468AB06A46B3
:103320001C4DD1614FF4007111841B49C2E9055055
:1033300042F8101F15484FF41151FDF7EDFFA54657
:10334000C4E728682979EB88D0F810C0D0F8089035
:10335000DCF80040DA0754BF43F4B01383F4D01311
:1033600023F4801208FA01FEDB074CBF44EA0E0486
:1033700024EA0E04CCF80040D9F800309847041E27
:10338000A6DB0835B6E700BF57A60000089B000083
:1033900082A600009FA60000040000017FB505463C
:1033A000406829698A6C0B6D0ABBABB14C6C8B65AC
:1033B00016461A46C96C0291CDE9004611B3002B9E
:1033C00018BF134600226946039301F0B7FF0E4B66
:1033D00098420AD06FF004032C69236304F12000A3
:1033E00003F086F8002384F85C3004B070BD4C6CA8
:1033F00013B19A4228BF1A46002C8A6514BF16469C
:103400000026D7E70B46DDE70000AD0B38B50378A3
:103410000C4663B98D6D5DB94B6D1C696FF073031C
:10342000236304F1200003F063F884F85C5038BD96
:103430008B6C33B19D4213D9224A2348012105F0F8
:10344000FEFB236DA26D33B19A4221D91D4A1E485D
:10345000012105F0F4FB606DBDE83840FFF79EBF29
:103460005B1B8B6473B94B6B08334B638B6B013BFA
:103470008B6301F1480204F13400383105F0E6FBBA
:103480006064DEE74B6C002BDBD02B444B64D8E749
:103490009B1A23657BB9E36B0833E363236C013B21
:1034A000236404F1500204F1400104F13C0005F0F2
:1034B000CDFBE064CFE7E36C002BCCD01344E36496
:1034C000C9E700BFC3A60000089B00002DE9F04F2C
:1034D0008BB000AFC7E9023243687B608B88046918
:1034E0009E048046894630D44FF0FF324FF0FF33C0
:1034F00004F1100003F030F8C4F80490D8F810A0DC
:10350000D8F804B09AF85D3023B1DAF80030994564
:1035100000F0DD80B9F8046016F400631CD0B34AF3
:10352000B348012105F08BFB6FF0850523689B886C
:1035300013F4005304D1636004F1100002F0D8FFCB
:1035400028462C37BD46BDE8F08FA369002BCBD1B0
:1035500063689942C8D1D1E7F50716D56D4688B0A2
:10356000D8F800106A46A348C2E905014FF400717B
:103570009183A14942F8101F9D484FF4E251FDF795
:10358000CBFEAD466FF01505D0E7300705D59B4A59
:103590009748012105F053FBF4E7C6F34513082BC8
:1035A00001D0974AF4E7D9F80050964B9D4201D8D4
:1035B000954AEDE70BF1080EBEE80F0007F1140C79
:1035C000ACE80F00DEF80030CCF800308F4B9D42A5
:1035D00054D98F4B9D4254D98E4B9D4254D98E4B1A
:1035E0009D4254D98D4B9D4254D98D4B9D422CBF49
:1035F0004FF000454FF08045B107FD6106F0040330
:103600004BD5002B14BF0323022387F82030C6F3C9
:10361000001387F82130DBF80030D3F8083516F0B6
:10362000020F4FEA5312C6F3400103F01F033BD1D0
:10363000BAB3012A40F03C817A49012202FA03F32D
:10364000C1F80C359AF85D302BB1584601F03EFEBA
:1036500000238AF85D30744A534607F11401584636
:1036600001F000FE714A904203462BD0704A604838
:10367000012105F0A9F86FF0040557E74FF0007538
:10368000BAE74FF08065B7E74FF00065B4E74FF059
:103690008055B1E74FF00055AEE7003B18BF01235E
:1036A000B3E74FF0A041C8E74AB1012A40F00381D7
:1036B0005C49012202FA03F3C1F80835C2E74FF072
:1036C000A041F6E701238AF85D30CAF80090012393
:1036D00084F85C307B68596A4A1C0AD003F12800E0
:1036E00005F005FB743004D1524A4148022105F02F
:1036F000A6FAFB68002B40F0A18063630023A3635C
:1037000004F1480204F1380104F1340005F09EFA96
:10371000BB686064002B40F09A80E363002323645D
:1037200004F1500204F1400104F13C0005F08EFA6E
:10373000E06420680023236348B183683BB1012122
:10374000083005F096FA2368186905F083FD4046B5
:10375000FFF724FE0022A06B1346834240F08080D6
:103760000023256C1946A94240F0818093422646E9
:1037700038BF13464FF4FA5202FB03F556F8203BCC
:103780004FF4004C1B68B5FBF3F540F2E730C83549
:1037900000214FF47A720023E5FB0C01FCF7B0FC2A
:1037A00002460B46304602F0D7FE002866D0224A79
:1037B0000F48012105F043FA4FF000097868C4F87A
:1037C000589001F083FD84F85D90D8F810506FF0A8
:1037D0007308C5F8308005F1200002F089FE85F8F5
:1037E0005C90304602F0DEFE45464BE0E1A600006C
:1037F000089B0000FBA60000030000011DA70000BD
:103800003CA7000047E801006BA700008FD0030031
:103810001FA107003F420F007F841E00FF083D00EC
:1038200000127A00000300500D3400000000AD0BC0
:103830009CA70000C3A70000EDA70000FB681B6861
:103840006363002B3FF45AAFFB685B6857E7BB68C4
:103850001B68E363002B3FF461AFBB685B685EE706
:10386000616B01EBC301013349680A4475E7E06B02
:1038700000EBC10001314068034474E7256B15F18A
:10388000740F99D02368002B3FF450AE9A68002A39
:103890003FF44CAE998811F480567FF447AE186916
:1038A00005F0D8FC20683146083005F0E2F93DE625
:1038B000C1F80C15FFDE0023C3F80835FAE700BF96
:1038C00000F01F0240090DD001280ED10A4B03EB76
:1038D00082030A4AD3F80007024042EA8102C3F891
:1038E000002770474FF0A043F1E702F5E072002394
:1038F00053F82230FFDE00BF00030050F0F8FCFF59
:10390000F0B587B001238DF8023002238DF8043022
:103910006B4403930F4601AB0DF1030100240493A4
:1039200005460291059401F08FFA0C4B9842064629
:103930000FD103AA3946284601F0EAF8B0420BD06D
:103940009DF80310284601F079FA6FF0040007B0E3
:10395000F0BD6FF01200FAE72046F8E70000AD0B6B
:103960002DE9F0474568D0F8108000AF0646E86BB7
:1039700005F0FFF9041E11DB296C481C1AD005F173
:103980004400FFF7BDFF10F1130F04460AD1334A7C
:103990003348012105F0D3F96FF012042046BD46EB
:1039A000BDE8F087411D05D12E4A2D48012105F0C3
:1039B000C6F9F3E76B6B9847D8F808504FF0010948
:1039C000D8E9023203EBC2039D4208D3404605F01A
:1039D00014FA7368D86B05F0CCF90024DEE7286888
:1039E00005F03DFC0346B0B92A68297910686C4699
:1039F0008AB06A461C4DD1614FF4007111841B4995
:103A0000C2E9055042F8101F15484FF41151FDF757
:103A100083FCA546C0E728682979EB88D0F810C058
:103A2000D0F808A0DCF80040DA0754BF43F4B01324
:103A300083F4D01323F4801209FA01FEDB074CBF94
:103A40004EEA040424EA0E04CCF80040DAF8003010
:103A50009847041EA2DB0835B2E700BF57A6000056
:103A6000109B000082A600009FA600000400000139
:103A70002DE9FF410569D0F804802B6D0646A86C3E
:103A8000002835D1002B53D0B8F838406A6CEF6C61
:103A90009C4228BF1C46EB6C53B1296D41B107F025
:103AA0006041B1F1005F03D0082C6F6E28BF08247D
:103AB00000926A6CAC651AB1AA6C002A18BF224643
:103AC000CDE901271BB12B6D002B18BF2346002227
:103AD00069464046039301F023FF184B984229D0D2
:103AE0006FF00401304604B0BDE8F04105F0A7B91D
:103AF000696CEF6CB8F838400A46ABB1834228BF16
:103B000003469C4228BF1C460029C4D001F06043F4
:103B1000B3F1005FBFD0082C28BF08242246286ECE
:103B200005F0C6FD2A6EB6E7844228BF0446EBE7DF
:103B30001946D7E704B0BDE8F08100BF0000AD0B27
:103B400010B502780346002A5FD10C69A26D32B924
:103B5000606D6FF07301BDE8104005F070B9E06C66
:103B600040B1216D31B1DB6823B1834202D0616E77
:103B700005F09EFDA36CA26D33B19A4213D9234A7E
:103B80002348012105F0DBF8236DA26D33B19A4281
:103B900022D91E4A1E48012105F0D1F8606DBDE80A
:103BA0001040FFF765BF9B1AA3647BB9636B0833B2
:103BB0006363A36B013BA36304F1480204F1380182
:103BC00004F1340005F0C2F86064DDE7636C002B9B
:103BD000DAD013446364D7E79B1A23657BB9E36BA0
:103BE0000833E363236C013B236404F1500204F1C6
:103BF000400104F13C0005F0A9F8E064CEE7E36C75
:103C0000002BCBD01344E364C8E710BDC3A600006B
:103C1000109B00002DE9F04F8FB000AFC7E90232D2
:103C200043687B608B88046989469904804633D455
:103C30004FF0FF324FF0FF3304F1100002F08CFC24
:103C4000C4F80490D8F804B0D8F810A0DBF8083015
:103C50003B609AF85D3023B1DAF80030994500F006
:103C6000E180B9F804E01EF400631CD0B14AB24808
:103C7000012105F064F86FF0850523689B8813F433
:103C8000005304D1636004F1100002F031FC2846B7
:103C90003C37BD46BDE8F08FA369002BC8D16368EF
:103CA0009945C5D1CEE71EF0010F16D06D4688B0FC
:103CB000D8F800106A46A148C2E905014FF4007126
:103CC00091839F4942F8101F9B484FF4E251FDF742
:103CD00023FBAD466FF01505CFE71EF0080F05D0AA
:103CE000984A9548012105F02AF8F3E7CEF34513E9
:103CF000082B01D0944AF4E7D9F800C0934B9C45B7
:103D000001D8934AEDE70BF10C060FCE07F1100531
:103D10000FC50FCE0FC53B68634528BF63469C4661
:103D200096E803008B4B9C4585E8030017D28A4B2D
:103D30009C4514D2894B9C4511D2894B9C4550D847
:103D4000884B9C454FD8884B9C454ED8874B9C450B
:103D50004DD88749874B884A8C4588BF13461EF04B
:103D6000020F7B620EF0040343D0002B14BF032329
:103D7000022387F82830CEF3001387F82930DBF8C8
:103D80000030D3F808251EF0020F4FEA5213CEF38D
:103D9000400102F01F0233D17BB3012B40F026819A
:103DA000764901239340C1F80C359AF85D302BB168
:103DB000584601F067FD00238AF85D30704A43469B
:103DC00007F11001584601F029FD6E4A9042034662
:103DD00023D06D4A5848012104F0F6FC6FF0040529
:103DE0004BE76A4BBBE76A4BB9E76A4BB7E76A4BED
:103DF000B5E7003B18BF0123BBE74FF0A041D0E778
:103E000043B1012B40F0F5805C4901239340C1F898
:103E10000835CAE74FF0A041F7E701238AF85D3083
:103E2000CAF80090012384F85C307B68196C4A1C46
:103E30000AD003F1440004F05AFF743004D1574A09
:103E40003D48022104F07BFFFB68002B6AD16363CD
:103E50000023A36304F1480204F1380104F13400A3
:103E600004F074FFBB686064002B40F09B80E36348
:103E70000023236404F1500204F1400104F13C00EA
:103E800004F064FF00252A46E064012120462563F2
:103E900004F093FF4046FFF7EBFDA06B2A462B464C
:103EA000834240F088800023256C1946A94240F0E7
:103EB00089809342264638BF13464FF4FA5202FBDC
:103EC00003F556F8203B4FF4004C1B68B5FBF3F5A7
:103ED00040F2E730C83500214FF47A720023E5FB49
:103EE0000C01FCF70DF902460B46304602F034FB9C
:103EF000024600286DD02A4A0F48012104F01FFF16
:103F000000257868A56501F0BDFC84F85D506FF070
:103F10007301404604F093FF304602F043FB6FF01C
:103F20007305AAE6FB681B686363002B90D0FB68EF
:103F30005B688EE7E1A60000109B0000FBA6000076
:103F4000030000011DA700003CA7000047E8010096
:103F50006BA700000048E8010024F40000127A007A
:103F6000FF083D007F841E003F420F001FA1070095
:103F70008FD0030048E8010090D0030000030050F8
:103F8000413B00000000AD0B9CA7000000093D0074
:103F900080841E0040420F0020A10700C3A700003C
:103FA000EDA70000BB681B68E363002B3FF460AF24
:103FB000BB685B685DE7616B01EBC3010133496876
:103FC0000A446DE7E06B00EBC10001314068034437
:103FD0006CE7256B15F1740F92D0002D3FF44DAEB8
:103FE0000146D8F8100004F0E8FE46E6C1F80C15CA
:103FF000FFDE0023C3F80835FAE700BF70B50123E0
:1040000083400E4ABFF35B8FDC4352E8001F01EA96
:10401000040542E80056002EF7D1BFF35B8F4FF442
:10402000803282400648C0F80823BFF35F8FBFF399
:104030006F8F0B4214BF0120002070BDBC14002004
:104040000010014070B40E49D1E90034D01AC318F1
:1040500044F1000422F07F46C1E90034A6F50013C4
:10406000B3F5400F09D2074B1B681A0A1B069C19AF
:10407000054B42F10005C3E9004570BC03F0D0B820
:10408000480C0020C0140020500C002011B3BFF3D6
:104090005B8F0123104A834052E800CF4CEA030CA7
:1040A00042E800C10029F7D1BFF35B8F0B4A4FF400
:1040B00080338340C2F80433094BBFF35B8F1B6826
:1040C000BFF35B8FC340DB0742BF064B4FF40032A8
:1040D000C3F80021704700BFBC140020001001404D
:1040E000B814002000E100E00D4B1868010A00063A
:1040F000BFF35F8F0B4BD3F80435181841F1000163
:10410000B3F5801F0AD2084BD3E90023904271EB2C
:10411000030303D210F1807041F10001704700BF2A
:10412000C014002000100140500C00202DE9F04F79
:1041300085B016461F469DF840A00446FFF75EFF77
:104140000190FFF7D1FFB04271EB070354D23E4B11
:10415000301A67EB0101984271F100014FD23B4BDD
:1041600003EB0413D3E902239F4208BF96425ED0BB
:1041700037494FF4803804F1500508FA04F8AD00CF
:10418000C1F848832046ADB204F06AFE26F07F4BAA
:1041900005F1804504F5A87305F58835DC464FF038
:1041A00003090293029A2CF07F4341F82230C1F8B0
:1041B0004483D1F80435274A6FF00200C01A6044E6
:1041C00020F07F40904232D9286868B1D1F8043598
:1041D0000393A3EB0B0020F07F40B0F5000F26D92E
:1041E000204604F03DFE039BBAF1000F07D109EB16
:1041F000030C09F10109D5E7BAF1000F09D06FF0FE
:10420000150520460199FFF741FF284605B0BDE896
:10421000F08F0123104ABFF35B8FA34052E8000FD9
:10422000184342E800010029F8D1BFF35B8F07492A
:104230000E98230101EB0412C8500F9B5360C2E992
:1042400002670025DDE700BF01008000380C002078
:1042500000100140FDFF7F00B81400207FB51C4C0A
:104260001C4BC4F80833C4F848331B4B00254FF0EF
:10427000FF304FF0FF31C4F80855C3E902014FF495
:104280008033C4F80433154B02264FF40032012169
:10429000C4F804631120C3F880212A46FEF75AF8B7
:1042A0001120FEF727F80E4A0123A3602360136054
:1042B0000C4B0D4A0093CDE9015500232846FFF72A
:1042C00035FF3046FEF7DAFB284604B070BD00BF6C
:1042D0000010014003000F00380C002000E100E056
:1042E000BC14002045400000FFFF7F002DE9F7438C
:1042F0002F4CD4F8043399070BD5D4F8043143B1CB
:104300002C4A0023C4F80431D4F804311368013373
:104310001360D4F80433DA0329D5BFF35B8F264B3F
:1043200053E8002F22F0010143E800100028F7D1E4
:10433000BFF35B8FD30702D4D4F84031BBB1002563
:10434000C4F84051D4F84031FFF7CEFEEFF31182AC
:10435000202383F31288BFF36F8F184BD3E90267D2
:10436000B042B94106D282F31188BFF36F8F03B018
:10437000BDE8F0834FF0FF384FF0FF39C3E9028901
:10438000D3E900101D604FF48033C4F84833C4F8FB
:104390004051D4F8403182F31188BFF36F8F002968
:1043A000E5D0009032463B4628468847DFE700BF0D
:1043B00000100140C0140020B8140020380C002068
:1043C00030B5431C124C85B005D08442A8BF0446CA
:1043D000012CB8BF0124FFF787FE0E4B0C4DD3E92B
:1043E0000013401AB0F5000F10D22218AA4228BFBD
:1043F0002A4652184FF0000007490091CDE901000C
:1044000043F10003FFF792FE05B030BD2A46F0E706
:10441000FFFF7F00480C00204540000008B5FFF773
:1044200063FE024B1B68C01A08BD00BF480C002089
:104430004FF08053D3F83021082A06D1D3F8343115
:10444000052B02D8024AD05C70470020704700BF9D
:104450004EA80000024AD2F80034002BFBD070476F
:1044600000E0014010B54FF08053D3F83021082A06
:104470004ED14FF080420021C2F80C11C2F8101149
:10448000C2F8381502F54042D3F80414C2F82015DA
:10449000D3F80814C2F82415D3F80C14C2F8281560
:1044A000D3F81014C2F82C15D3F81414C2F8301530
:1044B000D3F81814C2F83415D3F81C14C2F84015F8
:1044C000D3F82014C2F84415D3F82414C2F84815C0
:1044D000D3F82814C2F84C15D3F82C14C2F8501590
:1044E000D3F83014C2F85415D3F83414C2F8601558
:1044F000D3F83814C2F86415D3F83C14C2F8681520
:10450000D3F84014C2F86C15D3F84434C2F87035AF
:10451000FFF78EFF18B13A4B3A4AC3F88C26FFF7E3
:1045200087FF18B1384BFB22C3F81825FFF780FF2F
:1045300070B14FF080414FF08053D1F8E42ED3F8A2
:10454000583222F00F0203F00F031343C1F8E43E88
:10455000FFF76EFF20B12D4B4FF40072C3F84026D9
:104560004FF08053D3F83031082B1AD14FF08043ED
:10457000D3F80024D20744BF6FF00102C3F800242F
:104580004FF08053D3F83431052B02D8204AD35C46
:104590003BB14FF01023D3F808224FF08043C3F80B
:1045A00058254FF01023D3F80022002A03DBD3F85C
:1045B0000432002B22DA174901234FF01020C1F8F2
:1045C00004351224FFF746FFC0F80042FFF742FF10
:1045D000C0F80442FFF73EFF0023C1F80435FFF79F
:1045E00039FFBFF34F8F0C490C4BCA6802F4E062ED
:1045F0001343CB60BFF34F8F00BFFDE710BD00BF7B
:10460000005000404881030000F00040009002404C
:1046100048A8000000E0014000ED00E00400FA05B9
:1046200030B50468CCB1BFF35B8FB4FA84F3C3F147
:104630001F03DBB201229A4024EA020250E8005F25
:10464000A54204D140E8002CBCF1000FF6D1BFF325
:104650005B8FE6D102480B7030BD0248FCE700BF1B
:104660000000AD0B0200AD0B10B50368CB40DB07BB
:1046700014D401238B400268BFF35B8F43EA02012D
:1046800050E8004F944204D140E8001CBCF1000FF8
:10469000F6D1BFF35B8FEED1014810BD0148FCE7B6
:1046A0000000AD0B0400AD0B014BC3F804057047CF
:1046B00000F00140F7B50546F8B101281BD10422EE
:1046C0004FF4807301464FF0804003440244C0F829
:1046D00008130026012111601E608D421B688DF8B1
:1046E000071008BF0DF1070642F210744FF0804723
:1046F00045B1012D28D003B0F0BD0C224FF48273D8
:104700000221E0E7D7F8183403F480333EB9002BD8
:10471000F1D0012004F0C0FB013CF3D1EBE7D7F866
:10472000182402F003023260002BE4D09DF8070049
:10473000012803D104F0B0FB013CD9D1012DDAD11D
:104740000C4B00225A71D6E7D7F80C3403F48033AF
:104750003EB9002BF4D0012004F09EFB013CF3D1C4
:10476000EEE7D7F80C2402F001023270002BDDD105
:10477000E6E700BFC4140020044B1A7922B90122D5
:1047800018609A800248704702487047C41400209D
:104790000000AD0B0C00AD0B08B5074B1B682BB12F
:1047A0000020FDF7C9FD08B9FDF7A4FD4FF08043D7
:1047B0000022C3F8182508BDC414002010B510B19C
:1047C000012843D010BD4FF08043D3F81814D3F81C
:1047D0001824C80321D502F00303012B04D013B120
:1047E0000020FFF767FF00234FF080420220C2F84D
:1047F000183508224FF4827303F1804300211960B9
:1048000002F180421C6801241460154A12680AB340
:104810004FF08043C3F80403D4E7D3F81424D1073E
:10482000E1D5D3F81C249207DAD40D4A12681AB1E4
:104830000222C3F80423C5E7D3F80421002AFBD0E1
:104840000022C3F80421D3F80431BBE700224FF45F
:104850008073D1E71A68002AFCD019601B68B1E7A1
:10486000C4140020F8B54FF080431C4ED3F8044325
:104870000125002704B9F8BDB4FA84F0C0F11F0087
:10488000830003F580739BB203F1804305FA00F2C5
:10489000196892B224EA02040029EBD01F601B6859
:1048A0004FF08043012AC3F8082305D0022A08D01C
:1048B0003368C0B29847DDE77379002BDAD17271A3
:1048C000F6E7D3F81814D3F818148907F0D1C3F811
:1048D0001855C3F804239D60CCE700BFC414002022
:1048E000036803F01F025B09026004D0012B034838
:1048F00018BF002070474FF0A040704700030050E1
:10490000034A430900F01F00D35C1844C0B270474B
:1049100054A8000070B50546FFF7F2FF0C4C0830B4
:104920000E4634F81030DA0508D5C3F3432304EB00
:10493000C302284654F8333052689847A3682BB115
:10494000E26831462846BDE87040184770BD00BF98
:10495000C805002008B5FFF7D3FF034B083033F834
:104960001000400B08BD00BFC805002008B5FFF7C8
:10497000C7FF034B083033F81000C0F3400008BDF8
:10498000C805002008B5FFF7BBFF034B083033F81C
:104990001000C0F3401008BDC8050020034611F008
:1049A000010010B5CCB20DD1A207C4F3400012D55E
:1049B000094AD2F820055860C2F82005003818BF0F
:1049C000012008E04FF0A041D1F820251A60C1F87D
:1049D0002025002AE8D010BD0003005010B5FFF7D5
:1049E0008FFF124A083032F81030D9051CD5C3F3B6
:1049F000432123F4F85322F8103002F10E04002072
:104A000034F8023F13F4807F03D0C3F34323994269
:104A10000AD001303028F3D1002342F83130044865
:104A2000BDE81040FFF720BE10BD00BFC805002044
:104A300040060020F0B50546002004460126074642
:104A40008C420BD1114BD3F87C2132B10022C3F838
:104A50007C21D3F87C3140F00040F0BDE3B29B00F4
:104A600003F580729B0806FA03F31D420BD002F196
:104A7000804202F5C042D2F800C0BCF1000F02D063
:104A80001760126818430134DAE700BF0060004085
:104A9000F7B506460846FFF733FF194F00F1080542
:104AA0000C4637F81530DB0727D5304604F06DFA91
:104AB0002046FFF767FF40B12046FFF74BFF316804
:104AC00000F5A270002341F820302046FFF786FF52
:104AD000002301A827F815300194FFF701FF019B7F
:104AE00000EB8300074BD0F80027134043F002038C
:104AF000C0F80037044803B0F0BD0448FBE700BF2E
:104B0000C8050020F0F8FCFF0000AD0B0400AD0B61
:104B10002DE9FF41164680460846FFF7F1FE0D4697
:104B20003168044609B32846FFF720FF18B128462C
:104B3000FFF728FF10BB0023CDE900338DF80E30BE
:104B40008DF80F300DF10F020B4628460DF10E01C6
:104B500004F0B2F9474A04F1080132F8113023F0A9
:104B6000020343F0010322F81130736863B328464F
:104B70001F785968FFF7FAFE10B1D1B13E4826E020
:104B80003C4A04F1080032F8103023F02003DB0423
:104B9000DB0C22F8103061B1032FEFD8716849683F
:104BA00091F800C0D8F80010A7B90CF5A27C41F824
:104BB0002C70304A04F1080132F8113023F01C0344
:104BC00043EA870322F81130B3684BBB2B4804B08B
:104BD000BDE8F08101EB8C0143EA4C33D1F810E5DC
:104BE0002EF0030EC1F810E5D8F8001001EB8C0E82
:104BF00043F02003DEF8101522F8103021F44F3175
:104C000021F44071CEF810152902DEF8108501F468
:104C10007C5141EA074141EA0801CEF81015C8E786
:104C2000D3E900672846FFF7D9FE002ECED0114DFC
:104C3000D5E90023964203D19F4201D1002209E029
:104C40000F480DF10F01FFF7EBFC0C4B9842BED162
:104C50009DF80F2045F8326005EBC20308345F6011
:104C600035F8143043EA422343F4807325F81430B6
:104C7000ACE700BFC80500200400AD0B0000AD0B81
:104C8000400600202DE9F0430C4685B080462046C2
:104C900011461E46FFF734FE054629B32046FFF7AE
:104CA00065FE18B92046FFF76DFE18BB314F05F1C0
:104CB000080937F8193013F01C0F02D04B78012B7C
:104CC00018D001238DF80F300023CDE900134A1CC2
:104CD0008B1C20460DF10F0104F0EEF837F8193067
:104CE00043F0030327F81930002E41D02046FFF788
:104CF0003DFE18B9204805B0BDE8F08396F800C025
:104D0000D8F800301B4F0CF5A272002143F8221096
:104D100005F1080237F8121021F02001C904C90C6E
:104D200027F8121075781DB3D8F80000B67800EB9C
:104D30008C002D04D0F8103523F4991323F4F85384
:104D4000C0F81035230203F47C5305F440353605D2
:104D5000D0F810E52B4306F4801641EA4C3133437A
:104D600041F0200143EA0E0327F81210C0F8103575
:104D70000248C0E7C80500200400AD0B0000AD0BE1
:104D8000014BC3E902127047C805002010B5084660
:104D90001446FFF7F7FD50B10846FFF7B1FD054B8C
:104DA000083033F8103004485B0B237010BD034803
:104DB000FCE700BFC80500200000AD0B0400AD0BF0
:104DC00070B5164D95F8804006462CBB21466022F2
:104DD00005F1100004F07AFC30682E6F21468E42F7
:104DE0000ED10023C0F87C31D0F87C3140F307307D
:104DF000FDF780FA01230A4885F88030AB6770BD63
:104E0000CBB29B0003F580727C2B08BF845001F16C
:104E1000010108BF8358E2E70248F0E7C805002017
:104E20000000AD0B0C00AD0B034B93F88000003875
:104E300018BF0120704700BFC80500200148FFF7D8
:104E400013BC00BF3C0600200148FFF7E9BB00BFD0
:104E50003C06002073B503681646D3F80423002AE5
:104E6000A8BF4FF000420546A8BFC3F80423084678
:104E70000C46FFF787FD00B30846FFF777FD0146B4
:104E8000D8B92046FFF766FD04B2A40004F580728D
:104E9000034628688150296882582144D1F810259A
:104EA00042F00102C1F810252EB12968012202FA50
:104EB00003F3C1F8043302B070BD2046FFF720FDB4
:104EC0000F4B083033F81030C3F38203042B12D099
:104ED000052B12D001A80194FFF702FD019AD0F82A
:104EE0001035D34003F00103991C204602B0BDE801
:104EF000704004F02AB80321F7E70221F5E700BF6C
:104F0000C80500202DE9F04F694BDFF8A881D3F8E0
:104F10000403D8F87010C0B289B040F00040FFF729
:104F200089FD051E2FDAC24600235AF87C1F06A809
:104F3000CDE90633FFF732FD5F4B01930DF1180900
:104F40004FF0000B019A12F8013B0192DA0803F0CE
:104F500007031AF8022022FA03F3DA071CD409F136
:104F60000409BBF1000F14D0D8F870104FF00040C6
:104F7000FFF760FDD8F87C1006A8FFF70FFD0028AA
:104F8000DAD125F000450124002D79D109B0BDE822
:104F9000F08F4FF0010BD5E7484B5B440293D9F8F3
:104FA00000100029DBD0029B91FAA1F11C78B1FA24
:104FB00081F141EA44142046FFF7A2FC0830059431
:104FC00038F81070C808BB0819F80020039301F0E6
:104FD0000701012303FA01F122EA010209F8002086
:104FE00005A8FFF77DFC059A039B02F5E072C7F365
:104FF000820650F822205B073746C2F3014224D5CF
:1050000020463946D6B2FFF785FC05A80594FFF780
:1050100067FC059B03F5E07350F82330C3F30143AD
:105020009E4207D10021204603F08FFF31462046E3
:1050300003F08BFF05A80594FFF752FC059B0122A6
:1050400002FA03F3C0F82035A9E7022A0CD10321A4
:10505000204603F07AFF06F00503012BEAD139461A
:105060002046FFF757FCE5E702212046039203F0B4
:105070006CFF032EF3D0039A032ADBD1022EEDE757
:1050800095FAA5F3B3FA83F304FA03F29B0003F154
:10509000804303F5C04325EA0205D3F81005D3F891
:1050A0001015C0F30520C1F30141FFF733FC6BE796
:1050B00000600040C805002064A8000064A800004B
:1050C00001460148FFF7ACBA4C060020036803F024
:1050D0001F025B09026004D0012B034818BF0020A7
:1050E00070474FF0A04070470003005007B5019093
:1050F00001A8FFF7EBFF019B00EB8300054BD0F805
:105100000027134043F00303C0F8003703B05DF8F5
:1051100004FB00BFF0F8FCFF73B5CB7B0446002B0B
:1051200038D10B7B0878012B77D803F066FF0B781A
:10513000019301A8FFF7CAFF019B00EB83003C4BE2
:10514000D0F80027134043F00103C0F80037487837
:10515000FF2804D003F051FF4878FFF7C7FF8B7892
:10516000FF2B0FD001A88D7B0193FFF7AFFF019BB1
:1051700000EB83002E4BD0F80027134043EA850351
:10518000C0F80037C878FF2804D003F029FFC8789A
:10519000FFF7ACFF23792748CA78282505FB0303CE
:1051A0009A770B7C9BB94B7825680E78FF2B18BF3C
:1051B0001A468B78C5F8086508BF4FF0FF32FF2B01
:1051C00008BF4FF0FF33C5F80C25C5F8103523682C
:1051D0008A68C3F824254B7B0A7B2568003B18BFEF
:1051E0000123022A1CD0032A1DD0012A01D143F039
:1051F0000203C5F8543523794979282202FB0303B9
:10520000D97723795343C35883B1206840F30730DB
:1052100002B0BDE87040FDF76DB803F0E1FE86E72F
:1052200043F00403E5E743F00603E2E702B070BD94
:10523000F0F8FCFFCC14002007B5019001A8FFF79F
:1052400045FF019B00EB8300054BD0F8002713407E
:1052500043F00203C0F8003703B05DF804FB00BF61
:10526000F0F8FCFF2DE9F04190F80480144C4FF069
:10527000280C0CFB08FC04EB0C06074696F81CE017
:10528000BEF1000F19D144F80C20736041B1CB7B03
:1052900086F82530CB78B3774B79F377FFF73CFF6F
:1052A0003A6808480123C2F80035282202FB084466
:1052B000002262772377BDE8F0810348FBE700BF57
:1052C000CC1400200000AD0B0C00AD0B70B50679BE
:1052D000194C056828237343E35833B145F307306D
:1052E000FDF716F80423C5F808330023C5F8003588
:1052F000282303FB064393F82530BBB9D5F80805EE
:10530000FFF79AFFD5F81005421C01D0FFF794FF74
:10531000D5F80C05431C01D0FFF78EFF282303FBB3
:105320000643987FFF2801D0FFF786FF282303FB61
:1053300006440023237770BDCC1400202DE9F843E8
:105340000779394C28237B439046E2180E46517F5B
:105350008146002966D1E3580BB10123537796E8C3
:105360000F00282505FB074505F10C0C8CE80F0004
:10537000A87F0023FF2885F8243001D003F03DFEEC
:105380002823B8F1000F06D003FB0743002227486B
:105390005A77BDE8F883D9F8005003FB074304228D
:1053A000C5F80823C3F82080C5F80881D5F808217E
:1053B00072689AB133681B78C5F81C357368012B85
:1053C0000ED933685B78C5F81C3528237B43E65833
:1053D00076B10423C5F804331548DAE7DB7FEBE741
:1053E000F368012BF1D9282303FB0743DB7FEAE7AE
:1053F00007EB870104EBC101D5F80831002BFBD086
:10540000C5F808612846D5F8083103F003FE0028E6
:10541000F2D1282303FB0744A07FFF28DCD003F050
:10542000DFFDD9E70348B4E7CC1400200300AD0B3F
:105430000000AD0B0B00AD0B10B54FF0402000236A
:10544000C0F808310A49D0F8083103F0E3FD68B923
:10545000887FFF2801D003F0C3FD00234B770B7238
:10546000BDE81040D1E900310248184710BD00BF27
:10547000CC140020D4140020036803F01F025B0941
:10548000026004D0012B034818BF002070474FF082
:10549000A040704700030050012370B504460D463C
:1054A0004361642600220221204603F0FBFD20B95F
:1054B000012003F0F1FC013EF4D100236B774FF0A3
:1054C0008051D1E94C1208291AD1052A18D80E4961
:1054D0008A5CAAB14FF0FF32D4F80805D4F80C1555
:1054E000C4F80035C4F80825C4F80C250922C4F80E
:1054F0000025C4F80035C4F80805C4F80C1570BDC3
:105500000023C4F80035FAE766A800000F4B984264
:1055100019D00DD80E4B984215D007D80D4B984294
:1055200011D00D4BC31A5842584170470B4BF9E745
:105530000B4B984207D004D80A4B984203D00A4B31
:10554000F0E70A4BEEE70120704700BF80841E00A1
:1055500020A1070048E8010090D0030040420F005E
:105560000024F40000093D0000127A000048E80120
:1055700073B51646421C1C460546069B18D00129E9
:1055800002D1BBB103F0CCFD01A80195FFF774FF78
:10559000019B00EB83002402D0F80027074B44EA6C
:1055A00086040C4313401C4344EA4101C0F8001731
:1055B00002B070BD03F0C1FDE6E700BFF0F8FCFFEC
:1055C0002DE9F04F91F8213090F804A085B00746FE
:1055D0000C46002B00F0B48091F8223003934FF07A
:1055E00001086569784B9D4200F0C48000F2B480E8
:1055F000764B9D4200F0C18000F2A680744B9D4224
:1056000000F0BE80734B9D420CBF4FF080654FF0A1
:105610008045DFF8C49194F82300242202FB0A930A
:10562000997F60F3000199773B79217C02FB03931A
:105630009A7F61F341029A7794F82360002E32D169
:105640006269664B9A420CBF4FF0030B4FF0000BA0
:10565000237E012B94BF00230123009320685B4627
:1056600032460121FFF784FF009660685B463246B0
:105670000121FFF77DFF0096A27EA0685B463146C0
:10568000FFF776FF237C83F001030093E0685B461D
:1056900032460121FFF76CFF01210091E0695B4672
:1056A0003246FFF765FF2423B8F1000F71D003FBEA
:1056B0000A934FF0FF321A62A07C217E627EE66878
:1056C00094F8108094F824E094F820C03B68BEF170
:1056D000000F13D1D4E900BAD4F808E0E469C3F8A4
:1056E00008B5C3F80CA5C3F810E5C3F86C45039CD6
:1056F000C3F81465C3F86885C3F86445003A18BF59
:1057000001220229C3F8C005C3F8245553D0032948
:1057100054D0012901D142F00202C3F85425C3F844
:1057200060C53B792422534359F80330002B48D0FD
:10573000386840F3073005B0BDE8F04FFCF7DABD3C
:105740009846022303934CE7254B9D420CBF4FF034
:1057500080554FF080455CE7224B9D4213D01F4B94
:105760009D4213D0204B9D420CBF4FF000454FF09F
:1057700080454EE74FF000554BE74FF0006548E796
:105780004FF0007545E74FF0206542E74FF0A05518
:105790003FE703FB0A9AE268CAF82020227C9AF8C5
:1057A0001E3062F341038AF81E30A07C217E627EA7
:1057B0004FF0FF3686E742F00402AEE742F0060201
:1057C000ABE705B0BDE8F08F80841E0020A1070084
:1057D00048E8010090D00300F81400200048E801D8
:1057E00040420F000024F40000127A00431C07B569
:1057F0000ED0019001A8FFF73FFE019B00EB830054
:10580000054BD0F80027134043F00203C0F80037DF
:1058100003B05DF804FB00BFF0F8FCFF2DE9F8438E
:105820000746144C97F80480242505FB08F504EB83
:1058300005091E4699F81C30C3B999B14869FFF7AC
:1058400065FEA8B138466251C9F80460FFF7B8FE9A
:10585000242303FB084400236377074801232377AD
:10586000BDE8F8836251C9F80460F1E70348F7E73F
:105870000348F5E7F81400200000AD0B0C00AD0B59
:105880000400AD0B2DE9F041044606790068214D76
:1058900040F30730FCF73CFD24237343EB5853B12E
:1058A00023681D4AC3F8082306EBC601206805EBF0
:1058B0008101FFF7F1FD2421236801FB0651D3F894
:1058C0000805D3F80C75D3F810858B7FDB0714D44B
:1058D000FFF78CFF4046FFF789FF3846FFF786FF4A
:1058E000086AFFF783FF2368D3F86C05D3F8141513
:1058F000FFF77CFF0846FFF779FF2368074A9342CA
:1059000004BF01225A60242303FB065500232B7792
:10591000BDE8F081F81400205201080000F00240B8
:105920002DE9F0430779DFF8AC8124237B43164649
:1059300008EB03020D46517F85B08146002940F0F7
:10594000C68058F8033023B116F0140F04BF0123AA
:10595000537795E80F00242404FB078404F10C0C12
:105960008CE80F00206A431C04D0A37F99071AD546
:1059700003F0D6FB2968D9F8004021B101F060435B
:10598000B3F1005F06D1AB6883B103F06043B3F1BC
:10599000005F0BD0242303FB078300224E485A7775
:1059A00005B0BDE8F08303F0C8FBE3E74B4B9C4236
:1059B00024D14FF080436A68D3F8000E484B18603A
:1059C000E2B1484821F4FF5323F01F0383426ED80D
:1059D0005018DFF814C1C3F34F3101228A4000216F
:1059E00003F50053984241EA02014FEA420201D90D
:1059F0006345F5D34FF08043C3F8001E16F0010352
:105A000018BF0123C4F8503516F0020318BF012354
:105A1000C4F8403595E80F00EC468CE80F00039B76
:105A2000C4F84405C4F84815C4F83425C4F838351A
:105A30000023C4F81831D4F8183116F008054FF0D7
:105A40000703C4F800350FD124237B4358F8032003
:105A50000123236142B9D4F81831002BFBD06246F0
:105A60004021204603F01EFB24237B4358F80330DB
:105A70001BBB1A4B9C4201BF194B1A684FF0804365
:105A8000C3F8002E242303FB0783186A421C04D0AA
:105A90009B7F9B070ED503F050FB35B907EBC7077B
:105AA00008EB87012046FFF7F7FC104878E74FF432
:105AB00080719FE703F034FBEFE716F0040F4FF01F
:105AC000400314BFC4F80833C4F80433EDE70848B2
:105AD00066E700BFF81400200A00AD0B00F002409A
